:1000000040200020F50F000001650000E10F000016
:10001000E10F0000E10F0000E10F00000000000010
:10002000000000000000000000000000A911000016
:10003000E10F00000000000075110000E10F00005A
:100040003513000035130000351300003513000090
:100050003513000035130000351300003513000080
:100060003513000035130000351300003513000070
:100070003513000035130000351300003513000060
:100080003513000035130000351300003513000050
:100090003513000035130000351300003513000040
:1000A0003513000035130000351300003513000030
:1000B0003513000035130000351300003513000020
:1000C0003513000035130000351300003513000010
:1000D0003513000035130000351300003513000000
:1000E00035130000351300003513000035130000F0
:1000F00035130000351300003513000035130000E0
:100100007BB972B90029BEBF00204FF0004106E064
:1001100008BF00281CBF6FF000414FF0FF3000F017
:1001200057B8ADF1080C6DE904CE002909DB002BAE
:100130001ADB00F04FF8DDF804E0DDE9022304B03B
:100140007047404261EB4101002B1BDB00F042F89D
:10015000DDF804E0DDE9022304B0404261EB410137
:10016000524263EB43037047524263EB430300F098
:1001700031F8DDF804E0DDE9022304B0404261EB30
:1001800041017047524263EB430300F023F8DDF86E
:1001900004E0DDE9022304B0524263EB43037047FD
:1001A00053B94AB9002908BF00281CBF4FF0FF31DE
:1001B0004FF0FF3000F00CB8ADF1080C6DE904CE43
:1001C00000F008F8DDF804E0DDE9022304B0704730
:1001D000704700BF2DE9F04786468C460846089ECA
:1001E000154674461946002B40F0C2808542B2FA8B
:1001F00082F245D94AB1C2F1200300FA02FC2EFA7C
:1002000003F3954043EA0C0C94404FEA154EA8B214
:10021000BCFBFEF8230C0EFB18CC08FB00F943EAEC
:100220000C43994528D9EB1808F1FF3704D29945BA
:1002300002D9A8F102072B44A3EB0903A4B2B3FB34
:10024000FEFC0EFB1C330CFB00F044EA0344A0420E
:1002500014D92C190CF1FF3304D2A04202D9ACF10D
:1002600002032C44241A43EA07401EB1D440002361
:1002700034607360BDE8F0874746DDE76346F1E729
:1002800092BB431B01214FEA154EAFB2B3FBFEFCFC
:10029000200C0EFB1C330CFB07F840EA0343984587
:1002A00062D9EB180CF1FF3004D2984502D9ACF1B9
:1002B00002002B44A3EB0803A4B2B3FBFEFC0EFB2D
:1002C0001C330CFB07F744EA0344A7424ED92C1910
:1002D0000CF1FF3304D2A74202D9ACF102032C4443
:1002E000E41B43EA0040C0E7C2F1200320FA03F117
:1002F000954090402EFA03F303434FEA154EAFB2F8
:10030000B1FBFEFC0EFB1C10190C0CFB07F841EABC
:100310000041884504FA02F422D969180CF1FF3033
:1003200004D2884502D9ACF102002944A1EB0801AE
:100330009BB2B1FBFEFC0EFB1C110CFB07F743EA62
:1003400001439F420ED9EB180CF1FF3104D29F42BA
:1003500002D9ACF102012B44DB1B41EA004192E7D8
:100360006046E3E76146F7E76046A3E76346B7E721
:10037000834206D916B9002108467BE7C6E900E0AA
:10038000F9E7B3FA83F78FB9834201D3724508D8EE
:10039000BEEB020460EB030301209C461EB9002162
:1003A00068E73846FAE7C6E9004CF8E7C7F1200CE1
:1003B000BB4022FA0CF41C432EFA0CF120FA0CF389
:1003C000B84001434FEA14490EFA07F5B3FBF9F8B8
:1003D0001FFA84FE09FB18300B0C08FB0EFA43EAE7
:1003E00000439A4502FA07F240D9E31808F1FF30BA
:1003F00004D29A4502D9A8F102002344A3EB0A03D0
:1004000089B2B3FBF9F809FB183308FB0EFE41EA89
:1004100003418E452CD9611808F1FF3304D28E4573
:1004200002D9A8F10203214443EA0040A0FB02984C
:10043000A1EB0E014145CE46434602D306D14D45C0
:1004400004D2B9EB020E68EB04030138002EA6D0EB
:10045000B5EB0E0261EB030101FA0CFC22FA07F383
:100460004CEA0303F940C6E9003198E74046C5E786
:100470004346D9E70000000070B5134D01FB02F4BC
:100480000A2394FBF3F484FB054506460AA3D3E94B
:10049000002320462946FFF733FE09A3D3E90023B2
:1004A000306029462046FFF72BFE084A0023FFF75D
:1004B00027FE726070BD00BF00209BF35E1000003D
:1004C00080A8120100000000D8EF2F0040420F006A
:1004D0000329F7B50546144604D007296DD06FF0FF
:1004E00085004FE052B3072AF9D158681A68664B65
:1004F000C117C2FB0301012871F100035ADB634BF2
:100500002E696D68C01841F100015BA3D3E9002397
:10051000FFF7F6FD02380E284CD85D4B1C56002C18
:10052000C0F2A780E1B2284605F08CFF002829DB45
:10053000584B33F81430B360002023E0066940685C
:100540001F680DF1070105F001FF00281ADB9DF877
:10055000071011F00701BBB21CD04F4A32F8021B42
:100560008B4211D8738BA342E6D0E4B221462846D1
:1005700006F0D6FC002805DB2146284606F0B2FC32
:1005800000EAE07003B0F0BD0134072CE6D16FF053
:100590001504EAE7414A32F8020B834207D8338B4D
:1005A0009942C9D0C9B2284606F0BAFCE8E7013141
:1005B0000729F0D16FF01500E4E7002A3FD0072AA1
:1005C0008DD15A681C683048D11713460A46C4FBBF
:1005D0000032B424A3FB0401012B04FB021172F1CD
:1005E000000220DB2E4BC01825A3D3E9002341F1E4
:1005F0000001FFF785FDB0F5FA7F1CD0B0F5FA6F6A
:100600001BD0F528D6D1002468682E69214605F054
:1006100044FE0028B6DB234B33F8143042F22E227E
:100620005343736188E7204BC01861F1000114A3A4
:10063000D3E90023DDE70124E6E70324E4E71A8891
:100640000169154B33F8020B82420CD84B8BA34245
:100650003FF472AFE4B22146284606F043FC00287E
:1006600090DB21469FE70134072CEBD16FF0150496
:10067000F0E7204686E700BF3AA39500000000009F
:10068000D8EF2F000000000040420F009DD14A002B
:10069000B682000008810000E4800000F2800000C3
:1006A000ECF71700008100001408E8FF00000000CC
:1006B0002DE9F74F03290669144605D90B1F032BB3
:1006C00054D96FF0850024E00229D6F808803A4D0D
:1006D00022D0032923D0012914BFB6F90060B6F94E
:1006E000026008FB06F686FB056531A3D3E900230B
:1006F00030462946FFF704FD304A2060002330468B
:100700002946FFF7FDFC2D4A0023FFF7F9FC626044
:10071000002003B0BDE8F08FB6F90460E1E702F114
:100720001803DFF898A00193023E4FF0000B36F952
:10073000027F08FB07F787FB05971DA3D3E900237A
:1007400048463946FFF7DCFC524644F8080B5B4646
:1007500048463946FFF7D4FC52465B46FFF7D0FCCB
:10076000019B44F8042C9C42E1D1D1E7062975692C
:100770000CD007290ED0052914BFB6F90C10B6F914
:100780000E102A462046FFF777FEC1E7B6F9101093
:100790002A46F7E70A3602F11807204636F9021F03
:1007A00008342A46FFF768FEA742F6D1B0E700BF3B
:1007B0000010A5D4E80000003AA3950040420F00C5
:1007C00030B51849184895B005F0CFFB174806F02A
:1007D00074FE18B300230522CDE903320622134C20
:1007E0000592079303AA0A930EABCDE90823CDE93E
:1007F0000B23A5680D930D48EB683C219847002812
:100800000CDB0F212B6901AA20469847002805DB45
:10081000002140F6CD4004F049FCECE7002015B083
:1008200030BD00BF1081000016810000307B000049
:10083000014B1B68184700BFC0040020014B186023
:10084000704700BFC004002030B585B004460D4697
:1008500010220021684607F02BF802238DF80230A1
:100860002A46044B01932146684605F03FF805B03F
:1008700030BD00BF3108000080B505460E46174662
:10088000984604F031FC034607F07EF8DFF8189034
:10089000044649F80030424630463946A84754F8E5
:1008A000090000F015FC00BF080000002DE9F0472A
:1008B000858B04462807904611D4022905F00705C8
:1008C00040F0CC80204605F05DFB78B10138A18B6B
:1008D000042811D8DFE800F0C2106D8595000129C9
:1008E0000CBF45F0100545F02005A58388F311885D
:1008F000BFF36F8FBDE8F08701F0070AAA4500F04B
:10090000A5800027B9463E46A368002B00F0BC80B6
:1009100041F00801A18388F31188BFF36F8FA168AC
:10092000002900F0BA800D68002900F0B680D1F8E7
:100930000480334652462046C047002D76D02B68AF
:1009400029461D46F0E701F007035A1F012A1BD86C
:10095000002221F00701062B276889B2C4E9002292
:1009600009D13B4603E0E28B0132E2831B68002B96
:10097000F9D141F00201A183204605F003FB0028D4
:100980007AD041F0200176E0042B0AD121F0070152
:1009900089B2A183204605F0F5FA10B141F020019B
:1009A000A183A18B01F0070AAA454FD00027B946C1
:1009B000AAE7236921F0070141F00601062DD3F8CB
:1009C0000090A1832DD1B9F1000F3FD041F0080173
:1009D000A18388F31188BFF36F8F3A492046C84737
:1009E00029E021F00701236941F0040189B2042DB7
:1009F000D3F80490A183E6D000273E464FF0040AC6
:100A000082E721F00701236941F0050189B2052D34
:100A1000D3F80890A183D6D000273E464FF0050AB0
:100A200072E700273E464FF0060A6DE72B4687E740
:100A3000B9F1000FD1D1EFF31188202383F312888D
:100A4000BFF36F8FA38B23F00803A383A58BEA0664
:100A50002ED525F01003A38305F00705A669A18B09
:100A6000002EBFF670AF00232768C4E9003321F0E1
:100A7000070141F00101A183A18B01F0070AAA45FA
:100A80004FF000097FF440AF002F9CD041F00801E7
:100A9000A18388F31188BFF36F8F002FC8D03D6802
:100AA000394633465246204605F098FA2F46F4E779
:100AB000AB067FF51BAF25F02003A38305F00705E8
:100AC00000E700BF09600000014B03600020704791
:100AD000087D000008B5054805F047FA044805F010
:100AE00044FABDE80840034805F03FBA39810000E8
:100AF0006D810000A0810000014804F04FBD00BFDF
:100B0000087D000038B5044618B90F4B0F485B68E4
:100B100098476168B1F5683F10D0B1F5680F0DD006
:100B20000B4DA9420AD011F46861206807D0014634
:100B3000084806F024FD00232360656038BD1422B8
:100B400006F0B6FEF9E700BFA4050020CE81000044
:100B50002C5F5CA9D00D002008B520B34368B3F525
:100B6000683F10D101220368BFF35B8F53E8001F79
:100B7000002903D143E800200028F7D1BFF35B8FA1
:100B80000DD1002008BD094A93420AD000684FF0F9
:100B9000FF324FF0FF3303F04FFD0028F1D004483F
:100BA000F0E70448EEE76FF4E040EBE72C5F5CA968
:100BB000E98FFFFFEA8FFFFF08B5D8B14368B3F5AF
:100BC000683F10D100220368BFF35B8F53E8001F1A
:100BD000012903D143E800200028F7D1BFF35B8F40
:100BE0000BD1002008BD074A934208D0006803F0EB
:100BF0009BFDF6E76FF4E040F4E70348F2E70348B3
:100C0000F0E700BF2C5F5CA9E98FFFFFEA8FFFFFD1
:100C100010B5044618B91D4B1D485B6898476368BA
:100C2000B3F5683F2FD0B3F5680F2CD0194A934223
:100C300019D1236803BB18484FF0FF324FF0FF3340
:100C4000214603F0CBFC08B923681BB90F4B1348AE
:100C50005B68984720681422002106F029FE4FF4B3
:100C60006863636008E0B3F5683F0DD83A2B03D0A2
:100C700040F6BA629342DED1206806F0B8FC6368A1
:100C800043F03A03636010BD054AF3E7A405002072
:100C9000CE8100002C5F5CA9D00D0020F481000003
:100CA0003A00003A08B5064906484023142206F0E7
:100CB00057FCBDE808400449044804F0E1BC00BF0B
:100CC000D0080020D00D0020107D0000247D000001
:100CD00030BFFFF7FDBF00BF2DE9F0410B4EDFF83D
:100CE000308006EB0807CC1B0546324609492046F2
:100CF00006F0D0FDA01942460021083C06F0D8FDC0
:100D00002C6707F10800BDE8F08100BF000000007B
:100D100004000000E47C0000074A936893F90E1079
:100D2000002907DB526993421FBF044A536843F00E
:100D300080535360704700BF4010002000ED00E07A
:100D400070B5264B15469A6A12F0100F9A6A14BFB6
:100D50001124102412F0080F9A6A18BF1224920767
:100D600006460AD5586B9A6A140634D519B19A6AA0
:100D700022F080029A62132401E06FF01500174BF5
:100D80009A6A12F0010F9A6A18BF142412F0200F09
:100D90009A6A18BF1524D20602D49B6A9B070AD50B
:100DA0000E4B5B68190506D5314600F079FA10B193
:100DB00080F309880224094B9A6A920642BF5A6A54
:100DC00022F400525A629A6A42F0FF029A620023A9
:100DD0002B70204670BD6FF01500CCE700ED00E0F1
:100DE000134B9A6A12F0007F9A6A14BF1E201D20CE
:100DF00012F0807F9A6A18BF1F2012F4002F9A6A9F
:100E000018BF212012F4802F9A6A18BF222012F4F2
:100E1000003F9A6A18BF232012F4803F9A6A6FEA53
:100E200002426FEA12429A6218BF2420704700BF44
:100E300000ED00E010B5194B0246986A9C6A10F468
:100E4000805F14BF1720162014F4006F9C6A18BF2F
:100E50001820A40509D5986B986A000404D51AB126
:100E60009A6A22F400429A6219200C4B9A6A12F490
:100E7000806F9A6A18BF1A20D2050CD49B6A13F4AB
:100E8000005F18BF1C20054A936A43F47F439362B6
:100E900000230B7010BD1B20F5E700BF00ED00E044
:100EA000F0B5484B5B688BB00446C3F308030025DC
:100EB00085F31188BFF36F8F02F07F40B0F17F4F51
:100EC00011D102F00C0008280DD010074CBF0C46C1
:100ED00001250022033B8DF80720032B05D8DFE80E
:100EE00003F0246367602C46F3E700239DF8072096
:100EF000CAB902AE04F1200720686168324603C215
:100F00000834BC421646F7D1099A002D54D0C2F3DA
:100F1000080121B96FEA52226FEA4222099202A91E
:100F2000184605F0E3FA0BB0F0BD264BDA6A9107DC
:100F3000DBD4DA6A002AD8DBDA6A5200D5D55A69DE
:100F4000A16942F480725A61BFF34F8FBFF36F8F74
:100F50005A6931F8021C22F480725A61BFF34F8F34
:100F6000BFF36F8F4DF6027291420AD09A6AD2B2E5
:100F70004AB10DF1070201212046FFF7E1FE0346C9
:100F8000B4E72368B2E79A6A12F47F4F05D00DF1F7
:100F900007010120FFF74EFFF1E79B6AB3F5803FA1
:100FA000A3D3FFF71DFFEAE70DF107020021E3E7F6
:100FB0000DF107010020EDE722F4FF7222F001029B
:100FC000ACE700BF00ED00E0044B5A6942F01002AC
:100FD0005A615A6922F008025A61704700ED00E038
:100FE000EFF30880EFF3098101B57246FFF758FF70
:100FF00001BD00BF002080F31488BFF36F8F01F0A4
:1010000039FF00200D490860BFF34F8F0C4880F373
:10101000088800F02BF8202080F3118809484FF44D
:101020000461401880F30988EFF31480022108431B
:1010300080F31488BFF36F8F00F0FAF894ED00E0AE
:1010400040200020801200200749D1F89020002382
:10105000C2F307221846934200DB7047C1F898306C
:10106000C1F8A0000133F6E700ED00E008B572B664
:10107000002383F31388FFF7E7FF144B4FF0FF3291
:10108000C3F88020C3F88420C3F88820C3F88C20DC
:10109000C3F89020C3F89420C3F89820C3F89C208C
:1010A000C3F88021C3F88421C3F88821C3F88C21B8
:1010B000C3F89021C3F89421C3F89821C3F89C2168
:1010C00062B6BFF34F8FBFF36F8F08BD00E100E042
:1010D000084B9B6883420BD1EFF3058343B1064B6A
:1010E0005A6842F080525A605A6A22F400425A62A8
:1010F00006F073BB4010002000ED00E0094A936841
:101100006FF00A019967084958674B6843F08053AC
:101110004B60002383F31188BFF36F8F9368986F40
:10112000704700BF4010002000ED00E010B50446FD
:10113000EFF31183202383F31288BFF36F8F0A4BE1
:1011400058699860094B4FF000625A60084B026F73
:101150001A600022436F426783F31188BFF36F8FD9
:1011600000F006F9204610BD4010002000ED00E020
:10117000F00D00200B498A684FF030001044EFF367
:10118000098C80E8F01F74467046FFF7CFFFA64633
:1011900004498A6802F1300090E8F01F8CF3098856
:1011A00070470000401000201EF0040F0CBFEFF34A
:1011B0000880EFF30980816911F8021C0229FFD031
:1011C00001B505F099F901BD40B2002807DB044ADA
:1011D0004109012300F01F00834042F8213070478D
:1011E00000E100E0054B420900F01F0053F8222007
:1011F000012303FA00F01040704700BF00E100E057
:1012000040B20028A8BF00F1604001F10101B8BF61
:10121000064B4FEA4111ACBF00F5614000F00F00F2
:10122000C9B2B4BF195480F80013704714ED00E040
:101230000B4A08B50B4B22F07F029A60BFF34F8F29
:10124000BFF36F8FD3F8882022F47002C3F8882090
:1012500003F0E4F803F0E6FF00F060F803F022F991
:101260000000000000ED00E042F8203C009B42F846
:101270001C3C0A49019B42F8183C029B42F8143C72
:1012800021F001014FF0807342F8043C42F8081C41
:101290000023203A02654367704700BF79080000C9
:1012A000094A0346906870B113F1160F006E05D01D
:1012B000A0F140029A4205D8834203D2814228BF5E
:1012C00000207047002070474010002008B51546E8
:1012D0000B4A0C4B9060026F1A600E4600F048F803
:1012E0002C4686F309884FF00000074B98472046AC
:1012F0004FF000014FF000024FF00003034C204775
:1013000040100020F00D0020176500007908000053
:10131000014B10221A61704700ED00E004480023E1
:101320002021C2180133302B82F80013F9D1704705
:1013300000E100E008B5EFF30583064A103B02EB3D
:10134000C30152F8330049688847BDE80840FFF7F9
:10135000E3BC00BF587B0000024B034A0348012155
:1013600000F076B80000042000000020347D00006A
:10137000026E054B403A1A60044A4021C3E901124B
:101380001846012100F06EB8F40D002000000B1586
:10139000084AC2F898000B6823F01F03034343F088
:1013A0001003C2F89C308B6843F00103C2F8A030F0
:1013B000704700BF00ED00E02DE9F043DFF86080EA
:1013C00085B00E461F4604464FF00009B14523DAAA
:1013D0006068D8B13FB1411E08421BD11F2819D9FE
:1013E0002368194216D12368019305F0B7F8A36862
:1013F00003430393D8F89050C5F30725D0B2013DBD
:10140000A84207D801A9FFF7C3FF421C09F101094F
:101410000C34DBE76FF01502104605B0BDE8F08331
:1014200000ED00E0044B0522C3F89420BFF34F8F7A
:10143000BFF36F8F704700BF00ED00E0BFF35F8F19
:10144000024B0022C3F89420704700BF00ED00E07B
:1014500010B5034C01232278FFF7AEFF207010BDBA
:101460005012002008B50B4A00231278FFF7A4FFA2
:1014700010F1160F07D0084A0021D2F89030C3F3BC
:101480000723984200DB08BDC2F89800C2F8A010FC
:101490000130F2E75012002000ED00E02DE9F043AA
:1014A000534B544CD3F890302568C3F307239D4227
:1014B00085B000F29A80FFF7C1FF00200C2685421C
:1014C0001AD14D4C4D4F25706846FFF7FDFADFF8F5
:1014D0002081DFF82C9106460025AE4213D12378F7
:1014E00043490020D1F89020C2F30722934276DBD3
:1014F000FFF798FF002042E0616806FB0011FFF74C
:1015000047FF0130DBE7009800EB05114FEA051CAF
:10151000CB683B40B3F5000F48D00AD8B3F5001FA5
:1015200030D0B3F5800F36D0B3F5801F10D0013521
:10153000D3E7B3F1807F42D0B3F1007FF7D150F809
:101540000C3088684A6805F009F840F4802009E00A
:1015500050F80C3088684A6805F000F840F0885070
:1015600040F43020CDE901230390D8F89030207862
:10157000C3F30723013B98422AD96FF0150005B049
:10158000BDE8F08350F80C3088684A6804F0E6FF44
:1015900040EA0900E6E750F80C3088684A6804F031
:1015A000DDFF40F0E06040F40030DBE750F80C3045
:1015B00088684A6804F0D2FF40F08270D2E750F8A1
:1015C0000C3088684A6804F0C9FF40F08870C9E7A9
:1015D00001A9FFF7DDFE237801332370A7E7C1F8E7
:1015E0009830C1F8A00001337CE74FF0FF30C6E728
:1015F00000ED00E0407D0000501200200000F0FFF0
:101600000000081108B5024B1B689847002008BD70
:10161000000E0020034B044A1860937843F0020345
:1016200093707047000E0020E404002008B50649BE
:10163000064821F00701C1F1005202F5802204F0B2
:101640003AFC002008BD00BFC7240020040E002083
:10165000024B0122C3F840250020704700E0014002
:1016600020B1034B800143F001031847704700BFCE
:10167000007D000008B50D4805F01FFF10B96FF0A0
:10168000120008BD094805F018FF0028F7D00848E7
:101690004FF4202104F077FF0028F2D1BDE8084084
:1016A00004484FF4B01104F06EBF00BF687A000028
:1016B000687D0000607D000070B50D460649411A46
:1016C000044649110548402204F085FF2B46014697
:1016D0002046BDE870401847240E0020547A0000D0
:1016E00037B50C460A490B4A411A40230093491169
:1016F00005462346084804F09AFF011E05DA2846ED
:10170000234603B0BDE83040184703B030BD00BFEA
:10171000240E002099660000547A000010B5EFF303
:101720001184202383F31288BFF36F8F074A136855
:1017300023F00201DB07116002D4012005F051FD06
:1017400084F31188BFF36F8F10BD00BF7C0E0020A3
:10175000002270B5012104461046FFF751FD0F48E5
:1017600001F00CFD0E4B984215D101F017FD2669D2
:101770000C49304604F055FC00280BDB0125B5640C
:101780002469084904F1200004F04BFC002801DB27
:101790006565002070BD6FF00400FBE7A118000034
:1017A0000000AD0B707D00001FB500220123CDE9C4
:1017B0000223094ACDF800D06B46CDF804D004F0DE
:1017C00064FF002805DB4FF480420023684603F0E5
:1017D0000BF805B05DF804FBB166000030B4104BA7
:1017E0000C2202FB003301460020D3E9105218649A
:1017F000EFF31180202484F31288BFF36F8F9C6C69
:1018000004F0C00444F002049C6480F31188BFF328
:101810006F8F1DB12B46034830BC184730BC704752
:10182000240E0020547A000010B4EFF3118220231C
:1018300083F31288BFF36F8F1748016841F00204E9
:101840000460C80707D482F31188BFF36F8F0120AB
:1018500010BC01F0B5BC4FF08041D1F80C04D1F8B8
:101860000C14C907EFD5EFF3118083F31288BFF38F
:101870006F8F0A498B6C03F0C00343F002038B6443
:1018800080F31188BFF36F8F82F31188BFF36F8FDE
:10189000002010BCFFF7A2BF7C0E0020240E002009
:1018A00010B1012804D07047034B9B6C5B0701D13A
:1018B000FFF794BF704700BF240E0020024BC0B258
:1018C00003EB4010704700BF240E00202DE9F041CB
:1018D0003849BFF35B8F0746012251E8003F41E8DA
:1018E00000200028F9D1BFF35B8F33B93249334868
:1018F0004B60CB608A6004F0A7FB7B1E012B2BD8CA
:10190000012F07D14FF08043D3F81C3403F00303B9
:10191000012B21D005F0B3FE0546F8B9284B1B7802
:10192000E3B14FF080430222C3F808230646DFF8F4
:1019300094804FF08044D4F81824D4F81834D2039B
:1019400015D503F00303012B01D0012F0FD155B39F
:1019500086F31188BFF36F8FBDE8F081EFF3118636
:10196000202383F31288BFF36F8F0125DFE7ADB12A
:10197000304604F0E4FDD4F81835002BDBD1D4F860
:101980000421002AD7D0C4F80431D4F8043101234B
:10199000C4F81835C8F88031A360CCE700212120B5
:1019A00003F084FBE7E74FF080430222C3F80423EF
:1019B000D2E700BF200E0020100E0020440E0020B1
:1019C0007212002000E100E010B5044C2046FEF742
:1019D00035FF2046FFF71EFE002010BDE119000074
:1019E00073B5104E8DF807000446032501220DF152
:1019F0000701002002F068FC20B10123337020466B
:101A000002B070BD3378002BF9D0013D08D005F04D
:101A100036FE0028EAD10021422003F047FBE5E72B
:101A20003570ECE751120020F0B54068057B01F0FD
:101A30001F0444EA4514056987B0002D64D0B2F54F
:101A4000001F00F1100506D12146284605F049FC8B
:101A5000002007B0F0BD01AE0027B2F5800F01975E
:101A6000776039D1B3F1007F14BF052304238DF8CB
:101A700004300023CDE904630393836823FA01F162
:101A800011F001011AD1B2F1A07F17D104F01F03A8
:101A9000620903F5E0732AD0012A3BD11F4A52F8AC
:101AA0002330DB070AD40DF10306324621462846CF
:101AB00001F064FE1A4B98421CD0029603AA2146FC
:101AC000284601F01DFD174B984220D101222146E6
:101AD000284601F0B7FEBBE7B3F1C06F05D0B3F104
:101AE000007F14BF01230223C1E70323BFE74FF0A8
:101AF000A042D4E73146284601F09EFE094B9842A9
:101B0000DBD06FF00B00A4E76FF08500A1E76FF06A
:101B100015009EE751F82330FFDE00BF00030050A0
:101B20000400AD0B0000AD0B38B545682B69B3B1AF
:101B30001035284601F070FE044680B9014628465B
:101B400001F036FE084B98420BD108492246284640
:101B500001F00EFE224605210620FFF751FB002072
:101B600038BD6FF00400FBE70000AD0B711B0000F7
:101B7000420970B5034602D0012A17D070BD0D4E40
:101B8000326951680029F9D003F01F0301250C6860
:101B90009D400029F2D08A682A4002D04B68304626
:101BA00098472CB1236821461C46F2E7024EE7E72E
:101BB0002346F8E77C7A0000687A00002DE9F043BC
:101BC000466840F20635D006337B87B002EA050549
:101BD00054BFC2F34010032001F01F07B5F5837F07
:101BE000144647EA43178DF8030045D00FD8062D59
:101BF00018D007D8B5B1022D40D06FF0150007B04E
:101C0000BDE8F083B5F5807FF7D101250AE040F209
:101C10000222954234D0B5F5407F33D0B5F5007F30
:101C2000EBD102250123220303FA01F12CD57368BD
:101C3000C3F80815326982BB07F01F037F0929D05A
:101C4000012F77D13E4A02EB830284F48033D2F82D
:101C50000017C3F30043C4F3404444EA430421F4AF
:101C6000E16144EA800421F0070144EA05230B43C3
:101C7000C2F800370020C2E70725D3E70425D1E7E3
:101C80000525CFE70325CDE7630344BF7368C3F899
:101C90000C15CFE74FF0A042D5E710360DF1020248
:101CA0003946304601F06AFD14F4403F80460CD1BD
:101CB0003946304605F013FB224B9845DAD19DF8A2
:101CC0000210304601F0B2FDD4E701AB4FF000093D
:101CD00003AA39463046CDE90439CDE90199CDF85A
:101CE0000C9001F00DFC174B984286D114F4003390
:101CF00015D09DF803308DF80E3084F48034C4F391
:101D000000444B4603AA394630468DF80C508DF8F6
:101D10000D4001F0AFFC0B4B9842CDD06DE7CDE903
:101D2000043303AA0DF1030339463046039301F04F
:101D3000E7FBF0E703F5E07352F82330FFDE00BF66
:101D4000000300500000AD0B02780B69012A08D097
:101D5000022A08D04AB9064A1A6203F1100002F0BA
:101D60001FBD044AF8E7044AF6E7044AF4E700BF57
:101D70000000AD0B0100AE0B0200AE0B0100AD0B7D
:101D80002DE9F04F87B00546049343680769D3F8FF
:101D900028909B8B03930C4690464FF0FF324FF0F8
:101DA000FF33384602F020FD07F1100302930023B1
:101DB000002207F11000002602F016FD33464645CA
:101DC00001D300234DE0207A010775D40136464542
:101DD00021680BD2820709D4227D80EA020C0CF024
:101DE000010C02F004025CEA020C08D023B901F0F5
:101DF0006042B2F1005F1AD04FF0000A01E04FF0EC
:101E0000010A6268DDF80CE003EB020CF44556D8D9
:101E1000C00705D409EB0300059305F03BFD059BC6
:101E200062681A4493B2BAF1000F2ED113BBD4F8F2
:101E300000B0A3884FF0000A049A217A0092284645
:101E40005A4600F061F8031E0BDB4FF48042029803
:101E5000002302F0C9FC80B1284600F035F86FF08D
:101E600004030293384602F09BFC029B184607B01D
:101E7000BDE8F08F9A46CB46DEE73B6A114A9342B3
:101E8000EDD1237ADB0702D400230C3497E7CB454E
:101E9000FAD1A34609E0AAEB02011FFA81FADBF8A6
:101EA0000C0019FA81F105F0F5FCDBF804209245ED
:101EB000ABF10C0BEFD2E7E76FF08503D1E76FF0E2
:101EC0001B03CEE70000AD0B70B544682368D3F860
:101ED0000855D3F80C65204601F02CFF3146284602
:101EE00002F024F900210546606A04F056FC204601
:101EF00001F010FF034B9D4214BF6FF00F00002054
:101F000070BD00BF0000AD0BF0B587B047680C4650
:101F10001646002112220DF106001D4605F0C8FCF0
:101F200004F001038DF80430BDF830308DF8053031
:101F3000BB8D0295AB42049614D384F00202C2F327
:101F40004002520101A9384601F028FF084B98428F
:101F50000BD00B33984214BF6FF004006FF00F00EA
:101F600007B0F0BD6FF01B00FAE70020F8E700BFF4
:101F70000000AD0B38B545682B6A04469847686A7F
:101F8000012104F00AFC2346AA6905F1080128464C
:101F900001F086FE064B984206D10121204604F04E
:101FA00022FC00EAE07038BD6FF00400FBE700BFE0
:101FB0000000AD0B036803F01F025B09026004D050
:101FC000012B034818BF002070474FF0A040704716
:101FD000000300502DE9F04FDFF86C91DFF86CA1A1
:101FE00085B01546834600EB810140F2FF18594544
:101FF00003D1002005B0BDE8F08FDBF800305804B5
:10200000C3F3C322C3F3080400F197801B0E19F831
:102010000270444508BF4FF0FF34192B00F2908046
:10202000DFE803F00D141A331D23338E8E8E8E36A7
:10203000638E8E8E8E8E8E8E66696C828588C5F8D4
:102040000C45621C64D10BF1040BD0E7C5F81445B4
:10205000631CF8D0002665E0C5F80845F1E7631C6D
:10206000C5F80845EFD0002604E0C5F80C45601C13
:10207000E9D0012603A80394FFF79CFF039B0122EC
:1020800002FA03F3C0F80C350BE0C5F81045DFE7A2
:10209000C5F80845002FDBD1661CD4D00026324697
:1020A0000627DBF80030019303F40040002818BF36
:1020B000002203A8009218BF01260394FFF77AFFBD
:1020C000039C019B009A00EB8400C3F3412CD0F8E1
:1020D00000473B0243EA8C03134304EA0A04234308
:1020E00043EA4603C0F80037ADE7C5F80C45D1E731
:1020F000C5F84045BBE7C5F84445A9E7C5F86045C4
:10210000621CDBF800309ED0C3F30043002BB0D03C
:1021100003A80394FFF74EFF039B012606FA03F37F
:10212000C0F808353246BCE7C5F86445E8E7C5F8AD
:102130006845E5E7C5F86C45E2E76FF0150059E73B
:102140006FF0850056E700BF75820000F0F8FCFFD5
:1021500038B570B1074C084A4FF400450021E0FB48
:10216000054100232046FEF71BF8BDE8384002F089
:102170009DBF38BD3F420F0040420F00014B01227E
:102180001A60704700C000400C2903690BD15B6ADC
:10219000064907484B4393FBF0F100FB11331160F4
:1021A0005360002070476FF08500704790D00300A7
:1021B00040420F00044B00690022C3F80021D3F80D
:1021C000003102F0EDBA00BF00C000407FB50569E4
:1021D000AB6A63B33C2901D00C292BD105F1100661
:1021E0004FF0FF324FF0FF33304602F025FA134B29
:1021F0000193A86A0323002469460394029303F021
:1022000023FF4FF0FF324FF0FF33284602F0ECFA85
:10221000A86A03F070FF0A4BD3F808256A6201220E
:102220005A60304602F080FA204604B070BD6FF06C
:102230000A00FAE76FF08500F7E700BF7D21000094
:1022400000C0004010B504690020FFF737FBA06212
:102250004FF0FF320021204605F0D0F904F11000C4
:1022600005F0C5F9002201210C20FEF7C9FF0C2062
:10227000FEF7AAFF024B0122C3F80423002010BD81
:1022800000C0004030B50D29006920D1C488B0F9E4
:102290000E500389B0F902101B1B491B4B43B0F9C8
:1022A0001010491B93FBF1F32344002B1946B8BFD0
:1022B000D91D584200F0070003F0070358BF4342FE
:1022C0001248C9104343C2E90013002030BD102951
:1022D00019D10479B0F90A504379B0F900101B1BE9
:1022E000491B4B43B0F90C100948491B93FBF1F310
:1022F000234403EBD371002B03F001034FEA610188
:10230000B8BF5B42DEE76FF08500DFE748E8010019
:1023100020A10700F8B544680546A06900283ED012
:102320002E6905F0CAF800283BD07561E38BA069DF
:10233000217F43F48032D0F810C0D0F808E0DCF8F8
:10234000007013F0010F4FF0010303FA01F314BF03
:102350003B4327EA0303CCF80030DEF8003098470F
:1023600000281DDB237F124A012707FA03F3C6E981
:102370000723A0698368DB6906F11801A3B13A4617
:10238000984700280CDB3946204603F059FF002807
:1023900006DB084B33636868394604F07DFC002097
:1023A000F8BD6FF01200FBE76FF05700F8E700BFD1
:1023B000DD6C0000F96C000030B50E29036911D105
:1023C0001968114C0B130A25C1F30B0193FBF5F0AF
:1023D00005FB10336143634303EB1133C2E9000390
:1023E000002030BD0D290CD1B3F90430642493FBD7
:1023F000F4F104FB113308B242F2107113FB01F344
:10240000ECE76FF08500ECE7A086010073B5456846
:102410000469012301AA2221284603F028FF00288D
:102420003EDB9DF8043043F080038DF8043001AAB0
:1024300001232221284603F025FF002830DB00215C
:1024400040F2676002F032FE012301AA0F21284604
:1024500003F00DFF002823DB9DF80430682B21D109
:10246000A97E284603F030FF002819DB2E7E28467F
:10247000314603F0E7FF002812DB0C4B33F816302F
:10248000A3606E7E2846314603F007FF002807DB75
:10249000074B33F8163042F22E225343636100207B
:1024A00002B070BD6FF00400FAE700BF08810000C1
:1024B0000081000030B403460A4600681979836839
:1024C00005699C697CB1130206D52D6801238B40F8
:1024D0002B4218BF82F0C062044BA446134030BCAC
:1024E00002F0B072604730BC704700BF4000000689
:1024F0002DE9F043054689B0466804690021C520EE
:1025000002F0D4FD306804F0D8FF002800F04B81C1
:1025100000232362636284F828306C6801AA922148
:10252000204604F086FD002840F0E7809DF8043046
:10253000AB2B02D09C2B40F0E08000228021204673
:1025400004F063FD0246002840F0D780E7212046D2
:1025500004F05BFD0246002840F0CF80AB2120460E
:1025600004F053FD002840F0C880FF22832120465C
:1025700004F04BFD002840F0C08060228D212046F1
:1025800004F043FD002840F0B8804122902120460D
:1025900004F03BFD002840F0B08010229F2120462F
:1025A00004F033FD002840F0A88010228C21204642
:1025B00004F02BFD0246002840F09F806C689D21AE
:1025C000204604F022FD0246002840F096809E211D
:1025D000204604F01AFD002840F08F80A27C8E2156
:1025E000204604F012FD0346002840F08680C022F9
:1025F0008F21204604F037FD00287ED1E37C302275
:102600009021204604F02FFD002876D1237C0C2257
:1026100003F00C038F21204604F025FD024600281C
:102620006BD18921204604F0F0FC002865D10122FD
:102630008B21204604F0E9FC00285ED104231A46D1
:102640008021204604F00FFD002856D16C68DB2263
:102650008121204604F0D9FC00284ED1637C03225E
:1026600003F003038F21204604F0FDFC02460028FE
:1026700043D14FF6FF7384212068ADF80630A3885C
:102680008DF8051001210DF1050703918DF810203B
:102690000DF10606022202A90297059606928DF810
:1026A0001C2004F076FC40BB2068A388059600221D
:1026B00002268621ADF806208DF805104FF001089E
:1026C0008DF8102002A932460297CDF80C800696AC
:1026D0008DF81C6004F05DFC78B9334632468021E9
:1026E000204604F0C0FC064638B96C682F69A06823
:1026F00004F1080904F0E1FE28B96FF00406304641
:1027000009B0BDE8F083E389A068217B43F48032FF
:10271000D0F810C0D0F808E013F0010FDCF800305A
:1027200008FA01F814BF48EA030323EA0803CCF8C7
:102730000030DEF800309847237B1C4A4FF0010838
:1027400008FA03F3C7E90123A0688368DB69002B5B
:10275000D3D04246394698470028CEDBFD614FF082
:10276000FF32002107F12C0004F048FF48464FF0EB
:10277000B861FFF79FFEA068247B0569836802A902
:102780005B68984748B92A68029B08FA04F85340E6
:1027900013EA080F14BF012000200028AFDD3846DF
:1027A00004F021FCABE76FF01506A8E70570000008
:1027B000074BD3F8082142B10020C3F80801D3F831
:1027C0000821D3F818350B7070474FF0FF30704771
:1027D00000200040024BD3F88004C3F88004704707
:1027E00000200040F8B50E4604F049FF1A4D78BBB2
:1027F00064240127BFF35B8F55E8003F002B03D112
:1028000045E80072002AF7D1BFF35B8F07D0212083
:102810000021013C02F04AFC14F0FF04EAD10F4C05
:102820000023C4F81C31D4F81C310123A360C4F880
:102830001C654FF47A76D4F81C3123B9012004F0DA
:10284000CEFC013EF7D10123E36000232B60F8BDED
:1028500001232B60E3E700BFD80F002000200040D9
:10286000F7B55C4A436805690024C2F800451F6853
:10287000064601AA2146384603F0CEFF00280FDBAA
:10288000019B3A6819791868FFF7A4FB002807DB59
:102890006B793669012B06D0032B03D06FF08500CE
:1028A00003B0F0BD1024AB79032BF7D1EB79002BEB
:1028B000F4D1297911B10229F0D10E212B68B3F599
:1028C000164F68D02BD8B3F5165F66D014D8B3F581
:1028D000966F64D008D8B3F5967F63D0B3F5167FB2
:1028E000DCD14FF41C3341E0B3F5166F5DD0B3F586
:1028F000965FD3D1384B39E0B3F5E14F58D007D8C4
:10290000B3F5615F56D0B3F5964FC7D1334B2DE089
:1029100047F612229342C1D14FF4000326E0B3F5EB
:10292000613F4AD011D8B3F5963F48D008D84DF64C
:10293000C022934245D0B3F5614FAFD1284B15E08B
:10294000B3F5E13FAAD1274B10E0B3F5612F3BD09F
:1029500007D8254A934239D0B3F5E12F9ED1234BB6
:1029600004E0234A934299D14FF08053194A0C4313
:10297000C2F82435C2F86C4595E8030086E80300E8
:1029800004230020C2F80035C2F80801D2F808314B
:102990000123136084E7174BE8E7174BE6E74FF492
:1029A0009E23E3E74FF4A033E0E74FF41D23DDE778
:1029B000124BDBE74FF46C13D8E7114BD6E7114B02
:1029C000D4E74FF46503D1E70F4BCFE74FF08063B7
:1029D000CCE700BF0020004000B0130000A04E0074
:1029E00000F0EB0000E0D70190D0030000705F071B
:1029F00040420F0000509D000050270000F075007D
:102A000000B0AF0300903A0100D0BE0E70B50123B4
:102A100083400E4ABFF35B8FDC4352E8001F01EA9C
:102A2000040542E80056002EF7D1BFF35B8F4FF448
:102A3000803282400648C0F80823BFF35F8FBFF39F
:102A40006F8F0B4214BF0120002070BDE00F0020EB
:102A50000010014070B40E49D1E90034D01AC318F7
:102A600044F1000422F07F46C1E90034A6F50013CA
:102A7000B3F5400F09D2074B1B681A0A1B069C19B5
:102A8000054B42F10005C3E9004570BC02F0A4BC4F
:102A900080060020E40F00208806002011B3BFF359
:102AA0005B8F0123104A834052E800CF4CEA030CAD
:102AB00042E800C10029F7D1BFF35B8F0B4A4FF406
:102AC00080338340C2F80433094BBFF35B8F1B682C
:102AD000BFF35B8FC340DB0742BF064B4FF40032AE
:102AE000C3F80021704700BFE00F00200010014034
:102AF000DC0F002000E100E00D4B1868010A000621
:102B0000BFF35F8F0B4BD3F80435181841F1000168
:102B1000B3F5801F0AD2084BD3E90023904271EB32
:102B2000030303D210F1807041F10001704700BF30
:102B3000E40F002000100140880600202DE9F04F2E
:102B400085B016461F469DF840A00446FFF75EFF7D
:102B50000190FFF7D1FFB04271EB070354D23E4B17
:102B6000301A67EB0101984271F100014FD23B4BE3
:102B700003EB0413D3E902239F4208BF96425ED0C1
:102B800037494FF4803804F1500508FA04F8AD00D5
:102B9000C1F848832046ADB204F009FB26F07F4B14
:102BA00005F1804504F5A87305F58835DC464FF03E
:102BB00003090293029A2CF07F4341F82230C1F8B6
:102BC0004483D1F80435274A6FF00200C01A6044EC
:102BD00020F07F40904232D9286868B1D1F804359E
:102BE0000393A3EB0B0020F07F40B0F5000F26D934
:102BF000204604F0DCFA039BBAF1000F07D109EB81
:102C0000030C09F10109D5E7BAF1000F09D06FF003
:102C1000150520460199FFF741FF284605B0BDE89C
:102C2000F08F0123104ABFF35B8FA34052E8000FDF
:102C3000184342E800010029F8D1BFF35B8F074930
:102C40000E98230101EB0412C8500F9B5360C2E998
:102C500002670025DDE700BF01008000700600204C
:102C600000100140FDFF7F00DC0F00207FB51C4CF1
:102C70001C4BC4F80833C4F848331B4B00254FF0F5
:102C8000FF304FF0FF31C4F80855C3E902014FF49B
:102C90008033C4F80433154B02264FF4003201216F
:102CA000C4F804631120C3F880212A46FEF7A8FA6D
:102CB0001120FEF789FA0E4A0123A36023601360F6
:102CC0000C4B0D4A0093CDE9015500232846FFF730
:102CD00035FF3046FEF7FAFD284604B070BD00BF50
:102CE0000010014003000F007006002000E100E02A
:102CF000E00F0020552A0000FFFF7F002DE9F74379
:102D00002F4CD4F8043399070BD5D4F8043143B1D0
:102D10002C4A0023C4F80431D4F804311368013379
:102D20001360D4F80433DA0329D5BFF35B8F264B45
:102D300053E8002F22F0010143E800100028F7D1EA
:102D4000BFF35B8FD30702D4D4F84031BBB1002569
:102D5000C4F84051D4F84031FFF7CEFEEFF31182B2
:102D6000202383F31288BFF36F8F184BD3E90267D8
:102D7000B042B94106D282F31188BFF36F8F03B01E
:102D8000BDE8F0834FF0FF384FF0FF39C3E9028907
:102D9000D3E900101D604FF48033C4F84833C4F801
:102DA0004051D4F8403182F31188BFF36F8F00296E
:102DB000E5D0009032463B4628468847DFE700BF13
:102DC00000100140E40F0020DC0F002070060020FE
:102DD00030B5431C124C85B005D08442A8BF0446D0
:102DE000012CB8BF0124FFF787FE0E4B0C4DD3E931
:102DF0000013401AB0F5000F10D22218AA4228BFC3
:102E00002A4652184FF0000007490091CDE9010011
:102E100043F10003FFF792FE05B030BD2A46F0E70C
:102E2000FFFF7F0080060020552A000008B5FFF74D
:102E300063FE024B1B68C01A08BD00BF800600205D
:102E40004FF08053D3F83021082A06D1D3F834311B
:102E5000052B02D8024AD05C70470020704700BFA3
:102E6000F0820000024AD2F80034002BFBD07047F9
:102E700000E0014010B54FF08053D3F83021082A0C
:102E80004ED14FF080420021C2F80C11C2F810114F
:102E9000C2F8381502F54042D3F80414C2F82015E0
:102EA000D3F80814C2F82415D3F80C14C2F8281566
:102EB000D3F81014C2F82C15D3F81414C2F8301536
:102EC000D3F81814C2F83415D3F81C14C2F84015FE
:102ED000D3F82014C2F84415D3F82414C2F84815C6
:102EE000D3F82814C2F84C15D3F82C14C2F8501596
:102EF000D3F83014C2F85415D3F83414C2F860155E
:102F0000D3F83814C2F86415D3F83C14C2F8681525
:102F1000D3F84014C2F86C15D3F84434C2F87035B5
:102F2000FFF78EFF18B13A4B3A4AC3F88C26FFF7E9
:102F300087FF18B1384BFB22C3F81825FFF780FF35
:102F400070B14FF080414FF08053D1F8E42ED3F8A8
:102F5000583222F00F0203F00F031343C1F8E43E8E
:102F6000FFF76EFF20B12D4B4FF40072C3F84026DF
:102F70004FF08053D3F83031082B1AD14FF08043F3
:102F8000D3F80024D20744BF6FF00102C3F8002435
:102F90004FF08053D3F83431052B02D8204AD35C4C
:102FA0003BB14FF01023D3F808224FF08043C3F811
:102FB00058254FF01023D3F80022002A03DBD3F862
:102FC0000432002B22DA174901234FF01020C1F8F8
:102FD00004351224FFF746FFC0F80042FFF742FF16
:102FE000C0F80442FFF73EFF0023C1F80435FFF7A5
:102FF00039FFBFF34F8F0C490C4BCA6802F4E062F3
:103000001343CB60BFF34F8F00BFFDE710BD00BF80
:10301000005000404881030000F000400090024052
:10302000EA82000000E0014000ED00E00400FA0543
:1030300030B50468CCB1BFF35B8FB4FA84F3C3F14D
:103040001F03DBB201229A4024EA020250E8005F2B
:10305000A54204D140E8002CBCF1000FF6D1BFF32B
:103060005B8FE6D102480B7030BD0248FCE700BF21
:103070000000AD0B0200AD0B10B50368CB40DB07C1
:1030800014D401238B400268BFF35B8F43EA020133
:1030900050E8004F944204D140E8001CBCF1000FFE
:1030A000F6D1BFF35B8FEED1014810BD0148FCE7BC
:1030B0000000AD0B0400AD0BF7B5044618B10128B4
:1030C00023D003B0F0BD4FF080430222C3F80823A1
:1030D0000122DA60C3F80401D3F804310646012363
:1030E0008DF8073042F210754FF08047D4B1012CB3
:1030F000E7D1D7F80C3403F48033AEBB83B301209F
:1031000004F06DF8013DF4D12AE04FF08043002235
:10311000C3F808035860C3F80021D3F800310DF15B
:103120000706DCE7D7F8183403F480333EB9002BE8
:10313000C7D0012004F053F8013DF3D1C1E7D7F81F
:10314000182402F003023260002BBAD09DF8070069
:10315000012803D104F043F8013DC7D1012CB0D1BF
:10316000054B00225A71ACE7D7F80C2402F001029B
:103170003270002BEAD1F3E7E80F0020044B1A79F4
:1031800022B9012218609A800248704702487047AD
:10319000E80F00200000AD0B0C00AD0B08B5074B8D
:1031A0001B682BB10020FEF71DF808B9FEF70CF8DC
:1031B0004FF080430022C3F8182508BDE80F002017
:1031C00010B510B1012843D010BD4FF08043D3F8A3
:1031D0001814D3F81824C80321D502F00303012BD7
:1031E00004D013B10020FFF767FF00234FF08042A7
:1031F0000220C2F8183508224FF4827303F180438D
:103200000021196002F180421C6801241460154AF3
:1032100012680AB34FF08043C3F80403D4E7D3F82D
:103220001424D107E1D5D3F81C249207DAD40D4A2F
:1032300012681AB10222C3F80423C5E7D3F80421A7
:10324000002AFBD00022C3F80421D3F80431BBE7E5
:1032500000224FF48073D1E71A68002AFCD019606D
:103260001B68B1E7E80F002010B54FF08043D3F89A
:1032700000216AB10022C3F80021D3F80021012205
:10328000C3F80823114B587910B95A711B68984735
:103290004FF08043D3F8042172B10022C3F8042117
:1032A000D3F80421D3F81824D3F81824920704D1B2
:1032B0000122C3F818259A6010BD0222C3F8082322
:1032C000024BBDE810401B6801201847E80F0020A2
:1032D000036803F01F025B09026004D0012B03485E
:1032E00018BF002070474FF0A04070470003005007
:1032F000034A430900F01F00D35C1844C0B2704772
:10330000F682000070B50546FFF7F2FF0C4C08305E
:103310000E4634F81030DA0508D5C3F3432304EB26
:10332000C302284654F8333052689847A3682BB13B
:10333000E26831462846BDE87040184770BD00BFBE
:103340001805002008B5FFF7D3FF034B083033F80A
:103350001000400B08BD00BF1805002008B5FFF79E
:10336000C7FF034B083033F81000C0F3400008BD1E
:103370001805002008B5FFF7BBFF034B083033F8F2
:103380001000C0F3401008BD18050020034611F0DE
:10339000010010B5CCB20DD1A207C4F3400012D584
:1033A000094AD2F820055860C2F82005003818BF35
:1033B000012008E04FF0A041D1F820251A60C1F8A3
:1033C0002025002AE8D010BD0003005010B5FFF7FB
:1033D0008FFF124A083032F81030D9051CD5C3F3DC
:1033E000432123F4F85322F8103002F10E04002098
:1033F00034F8023F13F4807F03D0C3F34323994290
:103400000AD001303028F3D1002342F8313004488B
:10341000BDE81040FFF730BE10BD00BF180500200A
:1034200090050020F0B50546002004460126074619
:103430008C420BD1114BD3F87C2132B10022C3F85E
:103440007C21D3F87C3140F00040F0BDE3B29B001A
:1034500003F580729B0806FA03F31D420BD002F1BC
:10346000804202F5C042D2F800C0BCF1000F02D089
:103470001760126818430134DAE700BF00600040AB
:10348000F7B506460846FFF733FF194F00F1080568
:103490000C4637F81530DB0727D5304603F0FBFE26
:1034A0002046FFF767FF40B12046FFF74BFF31682A
:1034B00000F5A270002341F820302046FFF786FF78
:1034C000002301A827F815300194FFF701FF019BA5
:1034D00000EB8300074BD0F80027134043F00203B2
:1034E000C0F80037044803B0F0BD0448FBE700BF54
:1034F00018050020F0F8FCFF0000AD0B0400AD0B38
:103500002DE9FF41164680460846FFF7F1FE0D46BD
:103510003168044609B32846FFF720FF18B1284652
:10352000FFF728FF10BB0023CDE900338DF80E30E4
:103530008DF80F300DF10F020B4628460DF10E01EC
:1035400003F051FE474A04F1080132F8113023F02C
:10355000020343F0010322F81130736863B3284675
:103560001F785968FFF7FAFE10B1D1B13E4826E046
:103570003C4A04F1080032F8103023F02003DB0449
:10358000DB0C22F8103061B1032FEFD87168496865
:1035900091F800C0D8F80010A7B90CF5A27C41F84A
:1035A0002C70304A04F1080132F8113023F01C036A
:1035B00043EA870322F81130B3684BBB2B4804B0B1
:1035C000BDE8F08101EB8C0143EA4C33D1F810E502
:1035D0002EF0030EC1F810E5D8F8001001EB8C0EA8
:1035E00043F02003DEF8101522F8103021F44F319B
:1035F00021F44071CEF810152902DEF8108501F48F
:103600007C5141EA074141EA0801CEF81015C8E7AC
:10361000D3E900672846FFF7D9FE002ECED0114D22
:10362000D5E90023964203D19F4201D1002209E04F
:103630000F480DF10F01FFF7FBFC0C4B9842BED178
:103640009DF80F2045F8326005EBC20308345F6037
:1036500035F8143043EA422343F4807325F81430DC
:10366000ACE700BF180500200400AD0B0000AD0B57
:10367000900500202DE9F0430C4685B08046204699
:1036800011461E46FFF734FE054629B32046FFF7D4
:1036900065FE18B92046FFF76DFE18BB314F05F1E6
:1036A000080937F8193013F01C0F02D04B78012BA2
:1036B00018D001238DF80F300023CDE900134A1CE8
:1036C0008B1C20460DF10F0103F08DFD37F81930EA
:1036D00043F0030327F81930002E41D02046FFF7AE
:1036E0003DFE18B9204805B0BDE8F08396F800C04B
:1036F000D8F800301B4F0CF5A272002143F82210BD
:1037000005F1080237F8121021F02001C904C90C94
:1037100027F8121075781DB3D8F80000B67800EBC2
:103720008C002D04D0F8103523F4991323F4F853AA
:10373000C0F81035230203F47C5305F440353605F8
:10374000D0F810E52B4306F4801641EA4C313343A0
:1037500041F0200143EA0E0327F81210C0F810359B
:103760000248C0E7180500200400AD0B0000AD0BB7
:10377000014BC3E9021270471805002010B5084636
:103780001446FFF7F7FD50B10846FFF7B1FD054BB2
:10379000083033F8103004485B0B237010BD034829
:1037A000FCE700BF180500200000AD0B0400AD0BC6
:1037B00070B5164D95F8804006462CBB2146602218
:1037C00005F1100004F074F830682E6F21468E4227
:1037D0000ED10023C0F87C31D0F87C3140F30730A3
:1037E000FDF7F2FC01230A4885F88030AB6770BD15
:1037F000CBB29B0003F580727C2B08BF845001F193
:10380000010108BF8358E2E70248F0E718050020ED
:103810000000AD0B0C00AD0B034B93F8800000389B
:1038200018BF0120704700BF180500200148FFF7AE
:1038300023BC00BF8C0500200148FFF7F9BB00BF87
:103840008C05002073B503681646D3F80423002ABC
:10385000A8BF4FF000420546A8BFC3F8042308469E
:103860000C46FFF787FD00B30846FFF777FD0146DA
:10387000D8B92046FFF766FD04B2A40004F58072B3
:10388000034628688150296882582144D1F81025C0
:1038900042F00102C1F810252EB12968012202FA76
:1038A00003F3C1F8043302B070BD2046FFF720FDDA
:1038B0000F4B083033F81030C3F38203042B12D0BF
:1038C000052B12D001A80194FFF702FD019AD0F850
:1038D0001035D34003F00103991C204602B0BDE827
:1038E000704003F0C9BC0321F7E70221F5E700BFF0
:1038F000180500202DE9F04F694BDFF8A881D3F8B7
:103900000403D8F87010C0B289B040F00040FFF74F
:1039100089FD051E2FDAC24600235AF87C1F06A82F
:10392000CDE90633FFF732FD5F4B01930DF1180926
:103930004FF0000B019A12F8013B0192DA0803F0F4
:1039400007031AF8022022FA03F3DA071CD409F15C
:103950000409BBF1000F14D0D8F870104FF00040EC
:10396000FFF760FDD8F87C1006A8FFF70FFD0028D0
:10397000DAD125F000450124002D79D109B0BDE848
:10398000F08F4FF0010BD5E7484B5B440293D9F819
:1039900000100029DBD0029B91FAA1F11C78B1FA4A
:1039A00081F141EA44142046FFF7A2FC0830059457
:1039B00038F81070C808BB0819F80020039301F00C
:1039C0000701012303FA01F122EA010209F80020AC
:1039D00005A8FFF77DFC059A039B02F5E072C7F38B
:1039E000820650F822205B073746C2F3014224D5F5
:1039F00020463946D6B2FFF785FC05A80594FFF7A7
:103A000067FC059B03F5E07350F82330C3F30143D3
:103A10009E4207D10021204603F02EFC314620466D
:103A200003F02AFC05A80594FFF752FC059B012230
:103A300002FA03F3C0F82035A9E7022A0CD10321CA
:103A4000204603F019FC06F00503012BEAD13946A4
:103A50002046FFF757FCE5E702212046039203F0DA
:103A60000BFC032EF3D0039A032ADBD1022EEDE7E1
:103A700095FAA5F3B3FA83F304FA03F29B0003F17A
:103A8000804303F5C04325EA0205D3F81005D3F8B7
:103A90001015C0F30520C1F30141FFF733FC6BE7BC
:103AA0000060004018050020068300000683000027
:103AB00030B500F01F04400911D0012812D10C4884
:103AC00000EB84001B02D0F800570A4C43EA820244
:103AD0002C4042EA41012143C0F8001730BD4FF0AD
:103AE000A040EDE704F5E074002353F82430FFDE36
:103AF00000030050F0F8FCFF10B4CC7B8A68036828
:103B00002CB9D1E90041C3F80845C3F80C15C3F836
:103B10002425037928225343054AD3582BB1006842
:103B200010BC40F30730FDF74FBB10BC704700BF1F
:103B3000F00F002070B50C4686B00221054603F058
:103B400026FC4FF400710646284603F020FCD0B155
:103B5000D6B9A368C5F808330223A360A368C5F8E3
:103B600004334FF08071284603F011FC18B1D5F8EA
:103B700000329B0502D401232B626B61012384F880
:103B8000233006B070BDAEB3E3695E060AD494F884
:103B900023303BB92146284603F0A5FB80F0010005
:103BA00084F82300E36913F004033BD1C5F86031C6
:103BB000D5F86021C5F85C31D5F85C3194F8253032
:103BC00013B194F8233013B30023C5F80032A36077
:103BD000314BC5F8083345F30733002B17DB5A097F
:103BE000012103F01F03994002F160032B4A42F8C0
:103BF00023100CE04FF48021284603F0C8FB94F812
:103C00002030002B2FD194F82530002BDDD0238CD1
:103C1000ADF80430E3680493236902936369059364
:103C2000A3690393D5F8C434C5F8C43498072CD4D9
:103C300059072CD4DA072CD494F823309B00DBB23C
:103C40008DF8003094F825300BB984F82430E369FE
:103C50005B0703D594F82330002B92D0D4E90031D0
:103C6000684698478DE74FF40073C5F8003240F27C
:103C70000223A36003F1CE73C5F80833A368C5F827
:103C800004330123AB602B627BE70123D8E70223D7
:103C9000D6E70323D4E700BF02029C0100E100E065
:103CA0002DE9F04190F80480164E0746282000FBCD
:103CB00008F035180C4695F82210F1B9A960325079
:103CC0006B6085F8251085F824106CB1A37B85F80E
:103CD0002730204603F038FB88B1637B85F8263017
:103CE00021463846FFF708FF282303FB08660648ED
:103CF000012386F82230BDE8F0810448FBE7044840
:103D0000F9E700BFF00F00200000AD0B0C00AD0B79
:103D10000400AD0B036802790621C3F80015044BBB
:103D2000282101FB0233022283F82220704700BFC2
:103D3000F00F002010B5164B0479282202FB043244
:103D40000021916002681349C2F80813D2F80012EA
:103D500021F4BC51C2F800124FF08051D1F830016B
:103D6000082809D1D1F83411052905D80A48415C41
:103D700011B10921C2F800150021C2F8001528224E
:103D800002FB0433012283F8222083F8241010BDA3
:103D9000F00F002002029C01088300002DE9F84F7B
:103DA000B04D90F804900468282303FB0953904613
:103DB000002283F823204B680E4633B1CB6803F012
:103DC0006043B3F1005F40F085813378023B012B03
:103DD00006D8336903F06043B3F1005F40F07A81A5
:103DE000A14BC4F80833282303FB095393F824108C
:103DF00001F0FF0239B19B68DFF870B2C4F80433F8
:103E00005846BDE8F88F18F0140F0CBF01210021AF
:103E100083F82410317883F82010717883F821100A
:103E2000F168D9607168196131695961B168996146
:103E3000C8F3001183F82510C3F81C807378C4F808
:103E40008835C4F86021D4F86031C4F84821D4F82A
:103E50004831C4F82421D4F82431C4F80421D4F81A
:103E6000043118F0010318BF0123C4F8503518F0CD
:103E7000020318BF0123C4F84035337809EB8907E2
:103E800005EBC707032B00F2A380DFE803F0799866
:103E900062024FF48073C4F80032D7E90323C4F8F8
:103EA0004425C4F848350123A3604FF4801120460F
:103EB00003F06DFA0028F8D1D7E90523C4F84425AA
:103EC000C4F84835282303FB09534FF480229A6035
:103ED000DFF89CB1282202FB09F218F0080AAB585F
:103EE00005EB020013D13178032910D0012940F0ED
:103EF00085802160002B6ED0282202FB09F27168B8
:103F0000AA5821B9002A00F0BB8001226261282250
:103F100002FB09F2A918AA58002A00F0B18018F093
:103F2000040F1CBF00228A6018F0400F06D128221F
:103F300002FB0952916841F002019160282202FBC4
:103F40000952916841F4007191609268C4F80423A9
:103F500056E7D7E90323C4F84425C4F84835D7E920
:103F60000523C4F83425C4F838354FF48453C4F815
:103F7000003201232362282303FB09530222A6E710
:103F8000D7E9032318F0200FC4F84425C4F84835B6
:103F90004FF0280315BF4FF480724FF4007203FBFB
:103FA000095303FB095315BFC4F80022C4F80022CB
:103FB0004FF4802202229A600123236288E7D7E926
:103FC0000323C4F83425C4F838354FF48053CEE7C2
:103FD000DFF8A0B07EE7026902B961612649DFF827
:103FE0009CA0204603F0D3F9012210F4007F18BFF3
:103FF000626110EA0A0F2049F3D07DE70121A16038
:10400000002B7FF479AF006918B31C4B1AEA030F39
:104010007FF472AF1849204603F0B9F910F4007F1D
:104020008246F2D04FF08071204603F0B0F9D4F808
:10403000001280B111F4007003D101222262824685
:104040006261CB05E1D54FF48021204603F09FF952
:1040500004E06161D9E70122226262614FF0000A47
:10406000D3E700BFF00F002002029C010B00AD0B54
:104070000000AD0B0400AD0B0202040002000400BE
:104080002821D4F8C424C4F8C42401FB0955002114
:1040900085F824108AB11149114B12F0010F14BF99
:1040A0008B469B46013112F0020F18BF8B4612F06F
:1040B000040F0C4A18BF9346A2E618F0400F7FF495
:1040C0009FAE3946204603F00EF9054A002808BF86
:1040D000934695E6DFF810B092E600BF0000AE0B05
:1040E0000100AD0B0200AE0B0A00AD0B0149024806
:1040F000FFF720BDF00F00200030004002494FF0D4
:104100004020FFF717BD00BF18100020036803F020
:104110001F025B09026004D0012B034818BF002076
:1041200070474FF0A040704700030050F7B50646B7
:1041300003F057F9084603F054F901A80196FFF778
:10414000E5FF019B2E4D00EB83000C46D0F80037B5
:10415000019440F20D612B400B43C0F8003701A8D9
:10416000FFF7D4FF019B00EB83000127D0F8003755
:104170002B400B43C0F80037042003F030F809252A
:1041800001A80194FFF7C2FF019AD0F81035D3407F
:10419000DB0715D401A80196FFF7B8FF019B07FACA
:1041A00003F3C0F80C35042003F019F8304603F08F
:1041B00018F9013D042003F012F815F0FF05DFD1D6
:1041C00001A80194FFF7A2FF019A01239340C0F8D0
:1041D0000C35042003F003F8204603F002F9042014
:1041E00002F0FDFF01A80194FFF790FF019AD0F8BB
:1041F00010350448D34003F00103C01A03B0F0BDEA
:10420000F0F8FCFF0100AD0B08B5144BA82200210B
:10421000184603F04DFB0322026111494261114A25
:104220008161C2614FF48062026200228262426256
:10423000C26201660C49416610218166034602672D
:10424000C2664267BFF35F8F084911F8010D9854A9
:104250000132102AF9D1BFF35F8F08BD100400208E
:104260000E830000100000200000002027830000C3
:10427000F8B5144B182700FB07751D4407FB0033E6
:104280000E46DB6A012B14460AD0022B14D023B948
:10429000284603F0B3F8844208D900242046F8BD2C
:1042A000284603F0ABF8844228BF04462246314634
:1042B000284603F0ACF8F1E72846BDE8F84003F0E3
:1042C000C3B800BF10040020F8B50B4B1B780446A0
:1042D0000D4616460BB9FFF797FFEFF311874FF026
:1042E000200181F31188324629462046FFF7C0FF9E
:1042F00087F31188F8BD00BF1004002038B5EFF334
:104300001185202383F31288BFF36F8F064B9C68BF
:1043100003F0E6F885F31188BFF36F8F2046BDE800
:104320003840FCF7D5BE00BF4010002038B5094B1F
:1043300053F82040013053F82050A54200D838BD32
:10434000636823B1204603F0CEF80834F5E723680C
:104350009847FAE74480000070B52B4B2B4C2C4D4E
:10436000012286B003201A70FFF7E0FFFCF7B2FBD2
:1043700003F0D5F80420FFF7D9FF2646AE4204F13A
:10438000300410D300F0D4FD204C224EAC4226D392
:1043900000F0E2FDFCF714FA1F4A137B23F001033F
:1043A000137306B070BD54F80C3C059354F8103CE0
:1043B000049354F8143C039354F8183C029354F8B3
:1043C0001C3C019354F8203C009354E90A2354E91F
:1043D0000C0100F06FFB54F8303C5E65CDE7D4E98A
:1043E0000A23B3F1FF3F08BFB2F1FF3F05D052EA05
:1043F0000301206803D103F04BF93034C6E731469E
:10440000183000F06FFFF8E772120020D87C00002F
:10441000D87C00009D7700001007002008B50348F5
:10442000034A0021121A03F076F808BD7006002036
:104430007812002070B5002386B00122CDE9042354
:10444000134E144D01930F22CDE902321249142369
:1044500003FB005506EBC01604464FF4C07000FB8A
:1044600004110E4B00954FF4A072304600F022FB71
:10447000737B0B4AEE6023F0040373734FF4046301
:1044800004FB033313442C746B6006B070BD00BF93
:104490009006002040100020C01A0020C9750000BE
:1044A00080120020BFB50020FFF740FF2C4B83F3A4
:1044B00008882C4D2C4E6B692C4F43F400736B61B4
:1044C0000024E02385F82230EC772C766C76AC76ED
:1044D00085F820406B6A43F4E0236B6285F8234043
:1044E000FCF772FDFCF714FF4FF0FF33AB62EB6299
:1044F000FCF7D4FFFCF730FF1D4BB36040F2011214
:104500009A81C3E91844DC6602F0D6FF0120FFF768
:104510000DFF0220174DFFF709FF00F03DFD164B80
:1045200075610593012315490094CDE903434FF4C8
:1045300080623B46CDE90144284600F0BBFA6A7B25
:10454000064622F0040228466A7303F0DDF820468E
:10455000FFF770FF3A4631462846FCF7B7FE00BF2A
:10456000C01A002000ED00E0401000205943000078
:10457000900700201007002028830000401C002026
:1045800038B5054C256804EB850405B938BD54F8E9
:104590000439013D9847F8E7D87C000038B5044C51
:1045A000044DAC4200D338BD54F8043B9847F8E7BB
:1045B000E47C0000E47C000038B5064C064D002089
:1045C000AC4200D338BD204602F0B0FF0028F9DB32
:1045D0002034F5E71E0600201E06002073B50C46A9
:1045E000EFF31181202585F31288BFF36F8F0569E2
:1045F0005DB125602B680361C3690133C36100208D
:1046000081F31188BFF36F8F11E052EA030603D1E3
:1046100025606FF00B00F3E7CDE900230246083078
:1046200000F0D2FB18B9034B9B685B69236002B0B2
:1046300070BD00BF401000202DE9F341044617462D
:104640001E46EFF31188202383F31288BFF36F8F88
:10465000C368334A7BB180689168884219D057EAB1
:10466000060318D188F31188BFF36F8F6FF00F0026
:1046700002B0BDE8F081916891F90E10216101331B
:10468000E3609368A36088F31188BFF36F8F002005
:10469000EEE72169F2E791F90E1090F90E30994298
:1046A000A8BF19466FF07E029142B8BF11468B42F7
:1046B0002DDD02F094FF0546CDE90076194822462B
:1046C000414600F081FB0028E1D0EFF31186202362
:1046D00083F31288BFF36F8FA068D0B1236821697C
:1046E0009C420AD04BB193F90E309942A8BF1946AB
:1046F0006FF07E039942B8BF194602F070FF40B1D7
:104700000848314600F0D0FB6FF00A00B0E7002502
:10471000D2E7002DF4D186F31188BFF36F8FF3E752
:10472000401000207312002038B58368044663B33C
:10473000194A926893422BD1C368012B03D9013BDC
:10474000C360002038BDEFF31185202383F3128866
:10475000BFF36F8F0169806802F041FF204603F0CC
:1047600021F8A06058B190F90E20226100228267E2
:1047700002F0CAFF0948294600F096FBE1E7E06035
:1047800085F31188BFF36F8FDBE76FF01500D9E772
:104790004FF0FF30D6E700BF40100020731200201A
:1047A00038B50446EFF31185202383F31288BFF355
:1047B0006F8F02F0F7FF48B10022826702F0A4FF7A
:1047C00029460848BDE8384000F06EBBD4E9023203
:1047D0009A4218BF0133A36085F31188BFF36F8F2E
:1047E00038BD00BF7412002013B5EFF311812024EF
:1047F00084F31288BFF36F8F846844B1013C8460F6
:1048000081F31188BFF36F8F002002B010BD52EA10
:10481000030406D181F31188BFF36F8F6FF00F008F
:10482000F3E7CDE900230246014800F0CDFAECE7BA
:10483000741200202DE9F043DFF8348185B005467D
:104840004FF0FF364FF0FF37EFF31189202383F34A
:104850001288BFF36F8FD5F880408CB9022105F123
:10486000980002F0D7FE002860D10023CDE9006750
:10487000029305F1880249463E4800F03BFCE3E71D
:10488000D5F884202368C5F88030944208BFC5F865
:104890008430D5F8983043F00203C5F89830E368C7
:1048A00023F0040343F00103E360636889F3118894
:1048B000BFF36F8F20469847EFF31189202383F3CE
:1048C0001288BFF36F8FE368D90623F0010237D453
:1048D000E260E3689A071AD5D8F8000023F00203D3
:1048E000E360A0B10268002188B143689C4237D1DF
:1048F000036869BBD8F80420C8F80030824201D1AF
:10490000C8F80430002340F8083BFFF749FFD5F80A
:10491000983023F00203C5F8983089F31188BFF36B
:104920006F8FDB0590D400F03FFB8DE705F190041D
:1049300000220121204602F072FF0028F8D194E7FE
:1049400023F01103E36004F11000FFF729FFC0E733
:104950000B60D8F80430834208BFC8F80410D1E7D0
:1049600022B11368014610461A46BDE71346F9E71F
:104970006010002075120020F8B5C3689A0704463D
:104980000F46C3F340062CD45B071AD40B680BB94F
:1049900083680B60E368DD0744BFA3683B603D6844
:1049A0004CBF02260126002D3AD01F4B9B68AB421C
:1049B0000AD0D5F89830D807C3F3800214D46FF02A
:1049C000120600233B6025E002F059FED5F898302E
:1049D0000028F0D1D907C3F3C002F0D552B15B076C
:1049E00008D46FF00F06ECE7002AFAD1C3F3C00336
:1049F000002BF6D100232360D5F8843063B9C5E9D4
:104A00002044284602F011FEE36843F00403E3600B
:104A10003B68A3603046F8BD1C60C5F88440F0E7F1
:104A20006FF01506CDE700BF401000200146014899
:104A300002F015BE30080020F0B589B00446002011
:104A4000C4E920000E9D04F18800C4E9220004F1AD
:104A50009000C4E924004DB32879002840F20110E9
:104A600008BF0120C4F8980000204FF0FF364FF037
:104A7000FF37CDE90330CDE90100CDE906670C4BE6
:104A80000094204600F062F855B1296811B1204623
:104A900002F0FBFD6B791BB1237B43F00103237311
:104AA000204609B0BDE8F04002F0F2BD0120D9E790
:104AB000354800002DE9F043073285B022F00702A7
:104AC0000E461F461099017300F158037F32C0E96A
:104AD00016330446002322F03F0204218360417311
:104AE0003F2A0F98A073C4E90633E37306F1400927
:104AF000A2F1400805D883F31188BFF36F8F0846F1
:104B000002DFB51829462046FCF7E6F807300E9B71
:104B100020F00700A066C4E9189802930D9B01934A
:104B20002D1A0C9B00932A463B4631462046FCF743
:104B30009BFB00236365044B9B6803B1DB6EE3665C
:104B4000284605B0BDE8F08340100020F0B587B0DE
:104B500000250595109D04950F9D03950E9D0295CA
:104B6000DDE912760D9D01950C9D00950446FFF739
:104B7000A1FFB6F1FF3F08BFB7F1FF3F05D056EAEE
:104B8000070305D1204600F0A1F9204607B0F0BD8B
:104B900003493A46334604F1180000F0A3FBF4E75A
:104BA0009D77000038B50D4D2B4653F8184F9C42A9
:104BB00000D004B9EC68AB6838B95A7BD20604D18E
:104BC000A26912B9DA897F2A05D89C4202D0204610
:104BD00000F0D0FA23466B6138BD00BF40100020C2
:104BE00008B590F90D20437B002A014604DA03F052
:104BF0007F03437302F04EFD044B9868431A5842FA
:104C00005841BDE80840FFF7CDBF00BF401000206D
:104C100070B490F90D30427B002B29DBD30627D1ED
:104C200083692BBB134962F07F0242730A4652F834
:104C3000184F944218BF2346CC6923B9C0E9002419
:104C40002060C8610CE090F90E5093F90E60B542F7
:104C50000AD0AE4208DD5A68C0E9003210605860E0
:104C600070BC0020FFF79EBF9C42E7D01B68E4E7C2
:104C700070BC7047401000202DE9F041002A427BB3
:104C80000E460CBF10210821114204460FD141EA03
:104C90000203D20918D1437308291BD00120FFF762
:104CA00081FFBFF35F8F637B23F060036373274B48
:104CB0009B68A34243D1EFF30583002B3FD13046DD
:104CC000BDE8F041FCF71ABA03F07F03437302F02A
:104CD000E1FCE1E7A36813B1204602F0E3FC04F134
:104CE000180002F0BEFDA56D04F15807AF4211D0C7
:104CF0004FF0000875B1284602F0D4FC05F1180009
:104D000002F0AFFDC5F878802846FFF781FFA56D5A
:104D1000AF42EFD10D4DAB689C42BFD1EFF305839D
:104D2000002BBBD00120FFF73DFF094BAB6040F2E9
:104D300001129A810022C3E91822DA66B1E786F3EC
:104D40001188BFF36F8FBDE8F08100BF40100020D5
:104D50009007002070B590F90D20437B002A014692
:104D600004DA03F07F03437302F094FC4B7B154A93
:104D700063F07F0310464B7350F8183FD4698342A9
:104D800008BF002323B9C1E900042160D1610CE010
:104D900091F90E5093F90E60B5420ED0AE420CDD83
:104DA0005868C1E90030016059609068431A584260
:104DB000BDE870405841FFF7F5BE9C42E3D01B6848
:104DC000E0E700BF40100020F8B5124B0C4611463A
:104DD000114A98681060DDE90676EFF3118220220F
:104DE00082F31288BFF36F8F9D68284602F064FC3F
:104DF000B6F1FF3F08BFB7F1FF3F06D007493A467B
:104E0000334605F1180000F06DFA2046BDE8F84081
:104E1000FCF774B940100020681000209D77000056
:104E2000F8B50446EFF31186202383F31288BFF30D
:104E30006F8F437BDA0649B219D18569BDB903F09A
:104E40007F03437302F026FC437B164A817363F0B1
:104E50007F034373134653F8180F984218BF054653
:104E6000D0695DB9C4E900300460D46111E0A17378
:104E7000002086F31188BFF36F8FF8BD95F90E708F
:104E8000B9420BD08F4209DD6B68C4E900531C6046
:104E90006C600120FFF786FE0120EAE7A842E1D01E
:104EA0002D68DEE74010002049B9EFF3058030B9E6
:104EB000054B5A699B689A4201D0FCF71FB981F3F0
:104EC0001188BFF36F8F70474010002010B5EFF3CB
:104ED0001184202282F31288BFF36F8F427B510727
:104EE00004D484F31188BFF36F8F10BD22F0040245
:104EF0004273FFF78DFE21460248BDE81040FFF7E0
:104F0000D3BF00BF76120020034648B9EFF30582F5
:104F100032B9064A51699268914201D0FCF7EEB865
:104F200083F31188BFF36F8F704700BF40100020DC
:104F3000EFF31181202383F31288BFF36F8F054BAA
:104F40009A68D37B013BD37381F31188BFF36F8FD2
:104F5000704700BF4010002038B5EFF311852024C2
:104F600084F31288BFF36F8F0A4B9A68D37B0133A7
:104F7000D3730020FFF716FE85F31188BFF36F8F00
:104F8000EFF3118084F31288BFF36F8FBDE83840D0
:104F9000FFF7BABF40100020024B03F11802C3E92B
:104FA0000622704740100020F8B5EFF3118520234A
:104FB00083F31288BFF36F8F19498868437B03F02E
:104FC0007F03437302F066FB8B685A7B084662F0EE
:104FD0007F025A7350F8182FCC69824208BF002212
:104FE00022B9C3E900042360CB610CE093F90E60A1
:104FF00092F90E70BE420ED0B7420CDD5168C3E983
:1050000000210B6053600120FFF7CCFD2846BDE86E
:10501000F840FCF773B8A242E3D01268E0E700BFA3
:105020004010002050EA01032DE9F04105460E46EC
:1050300003D1FFF7B9FF00202BE0831C71F1FF3390
:1050400029DB02F023FC2C18EFF31188202383F3D3
:105050001288BFF36F8F124F124BB8681860FFF7BA
:10506000BFFDB86810492A463346183000F03AF9B7
:10507000BA68537B43F0100353734046FCF73EF885
:1050800002F004FC201A63EB0303012873F1000310
:10509000D1DBBDE8F0816FF00104241AD4E700BF32
:1050A00040100020681000209D770000B1F1FF3F04
:1050B00008BFB0F1FF3F08B506D10A4B986802F06F
:1050C00032FB4FF0FF3008BDFFF7ACFF4FF47A71B1
:1050D00047F6FF730022C0FB0132D80B40EA424082
:1050E000F1E700BF40100020014B9868704700BFF7
:1050F00040100020D3B5DDE90667089CCDE90067C4
:10510000FFF762FE1CB1034B9B685B69236002B032
:10511000D0BD00BF40100020044BC01A044BC0108B
:105120005843044B01221A54704700BF1008002056
:10513000ABAAAAAA77120020C3897F2B12D80A4BE8
:105140001B6863B1094B90F90E201B689A4209DB7A
:10515000437BDB0606D1064BC31A18BF012303F0BD
:10516000010070470023FAE7701000206C10002047
:105170009006002070B50E4B0E4C1E7C06EB4603CD
:1051800004EBC3040546204602F06BFB0A4B0022E9
:1051900028469A55FFF7D0FF48B1084B08491A68CE
:1051A000013A2046D317BDE8704000F09BB870BDAF
:1051B00040100020100800207712002070100020FE
:1051C0001951000038B5EFF31185202383F31288BD
:1051D000BFF36F8F104B114A9C681068A04206D134
:1051E000FFF7C8FF85F31188BFF36F8F38BD00212B
:1051F0001B7C11600A4AD35C002BF3D02046FFF7DA
:105200009BFF0028EED0637BDB0602D12046FFF730
:10521000A1FD2046E4E700BF4010002068100020F8
:105220007712002008B50648064A0749121A02F00C
:1052300074F9BDE80840054A0549064802F06DB911
:10524000C004002070060020508300000000000011
:1052500048830000C0040020034B1B680BB9FDF716
:10526000E5BD0020704700BF7410002030B570B15C
:105270000B4B5B6898420AD0036843B1D3E9042121
:10528000D0E90445121941EB0501C3E90421D0E935
:10529000003213605A600023C0E9003330BD00BF04
:1052A0009C05002010B50E4B1C689C4204D1FFF7F2
:1052B000D3FF6FF0004010BDFFF7CEFF002CF8D0F9
:1052C000D4E904321B1A62EBE072B3F1004F72F1C1
:1052D0000001EEDA002AACBF18460020EBE700BF61
:1052E0009C050020B3F1FF3F08BFB2F1FF3FF8B5C6
:1052F00004461D4616465ED08160EFF311872023D9
:1053000083F31288BFF36F8F013275F1FF3324DA14
:105310002E49D1E900206FF001039B1A4FF0FF32B4
:1053200062EB00009E1B60EB0500012E70F1000394
:1053300001DA01260020C4E90460254ED6F800C039
:105340007568B44508BF4FF0000CBCF1000F0DD1DB
:10535000C4E900652C6074601CE0FFF77DFF013636
:1053600045F10005361845EBE070E4E7DCE9042080
:10537000D4E90431934271EB000E1DDAD21ADCF845
:10538000043060EB0100CCE90420C4E900C31C60D8
:10539000CCF804403368B34209D09C4207D10D4B8E
:1053A0001C6824B9FFF77EFF2146FDF711FD87F346
:1053B0001188BFF36F8FF8BD9B1A61EB0001AC45FC
:1053C000C4E90431C4D0DCF800C0BEE728080020DE
:1053D0009C050020741000202DE9F84FEFF3118C8C
:1053E000202383F31288BFF36F8FDFF8B0A0DFF8BC
:1053F000B0902C4FC9F80000DAF8000000245045A6
:1054000008BF00200025D7E90021D9F80030E04688
:1054100078B3D0E9046C4FEAE37EB3427EEB0C0B29
:1054200005DAF61A6CEB0E04C0E9046421E0B21848
:1054300041EBE671C0E90445C7E90021FFF716FF1B
:1054400088F31188BFF36F8F83689847EFF3118853
:10545000202383F31288BFF36F8FD9F80030DAF876
:1054600000009B1B5045C446C9F80030CBD1D7E99A
:1054700000219A1841EBE3730024C7E90023C9F81F
:105480000040FFF70FFF2146FDF7A2FC88F31188CB
:10549000BFF36F8FBDE8F84FFFF794BE9C05002067
:1054A000741000202808002010B5EFF31184202389
:1054B00083F31288BFF36F8FFFF7CEFE054A0346D2
:1054C000D2E90001181841EBE37184F31188BFF3AE
:1054D0006F8F10BD280800201FB5094A92E803000D
:1054E00002AB83E803004FF480620093054906484D
:1054F0004FF0FF33FFF7A0FA002005B05DF804FB82
:10550000F07C0000802000203008002010B50A4CFC
:1055100023681BB101232360002010BD00F0EAF8CE
:105520000028F7D00138062803D8044B53F8200090
:1055300010BD034810BD00BF781000205C80000043
:10554000FE8FFFFFBFF34F8F0549064BCA6802F479
:10555000E0621343CB60BFF34F8F00BFFDE700BF96
:1055600000ED00E00400FA0510B4094B09490A4CAB
:105570004FF0FE32C3F800244968C3F80424C3F88E
:105580000824C3F80C240023C4F8003510BC0847D5
:1055900000B00250A405002000A00250D0E9001283
:1055A000014BC3E900127047A405002010B5044662
:1055B00050B1636813F0685F05D0064A934202D089
:1055C00000232360626010BD034B04485B6898476A
:1055D000EFE700BF2C5F5CA9A405002078800000E5
:1055E000C8B143680D4A934213D013F0685F0ED0E0
:1055F000012350E8002F194640E8001C9CF0000FE2
:10560000F7D1012AF5D0BFF35F8F0020704704481F
:105610007047044870476FF4E04070472C5F5CA906
:10562000E98FFFFFEA8FFFFF80B14368094A934289
:105630000AD013F0685F05D0BFF35F8F00230360CB
:105640001846704704487047044870476FF4E040BC
:10565000704700BF2C5F5CA9E98FFFFFEA8FFFFF57
:1056600010B5044620B1044B63600022226010BDD7
:105670000248FFF779FFF6E73A00003AA080000001
:1056800070B5D0E90023174C174D6360D0E90230A4
:10569000C4E9023022604868D1F800C0134BC3E966
:1056A00000C0D5F81801D1F808C0C3F808C010F040
:1056B000685FD1F80CC00969C3F80CC0196110D03B
:1056C0000B49C5F8BC110023C5E9453105F58A70C1
:1056D000C5F8B8319047236805F5DC70BDE8704027
:1056E000184770BDC005002090100020AC050020B8
:1056F0002C5F5CA938B500F02FF820B1032400F02E
:1057000063F8204638BD00F031F898B900F0ACF8E5
:1057100098B90F4DD5F828391B0EF02B08D1D5F8C4
:10572000242A0C4B9A420AD0072400F017F8E6E727
:105730000624FAE70424204638BD0024F5E70120BA
:1057400000F092F804460028F7D1C5F80C0AD8E713
:1057500000B002500000E020002070470020704799
:10576000014BC3F8040A704700B0025010B511484D
:1057700000F048F800B110BD0F4800F043F80028D1
:10578000F9D10E4C204600F03DF80028F3D10C4B27
:105790000C481C6000F036F801460028EBD100F000
:1057A0002DF8044608B1204610BD00F03FF8204611
:1057B000FAE700BF00060020FC050020F8050020E5
:1057C000F0050020F405002008B5084800F024F892
:1057D000074800F021F8074800F01EF8064800F0DE
:1057E0001BF8BDE8084000F00BB800BF0006002021
:1057F000FC050020F8050020F4050020002070477B
:10580000704700BF08B5034B02681B6810689847D3
:10581000002008BDC005002008B5034B02685B6886
:1058200010689847002008BDC005002070B5094CDD
:10583000094D2069AB68984718B1084B08485B6868
:105840009847084AEB68206900211160BDE8704064
:10585000184700BFAC050020C0050020A4050020AB
:10586000C48000008C100020F8B51A4D1A4E044672
:10587000B26828699047E8B9184F3B684CB1A3B1AA
:10588000012B19D0013B3B602869F3689847002041
:10589000F8BD43B9124A0121C2F800151149D1F8E7
:1058A0001029002AFBD101333B60F368286998472F
:1058B0000020F8BD0C48F8BD0A4AD2F81039002B78
:1058C000FBD1074A6FF07E40C2F80035FFF748FF72
:1058D0003B68D7E7AC050020C00500208C100020F5
:1058E00000A0025000B00250E98FFFFF2DE9F04FF9
:1058F0008DB043680293837815469A07804640F13D
:105900000D8100240E78002E00F00A81252E0BD088
:105910004B1C03930134029B4146304698470028B4
:10592000C0F2F6800399EDE74E788B1C252E039389
:10593000F0D00027B946BB46BBF11F0F38D8A6F1FF
:105940002003102B0AD8DFE803F02A0909300909DF
:10595000092109090928092D09091F00A6F13003A9
:10596000092B33D92A2E37D11BF0400F55F8043BB1
:1059700040F08280002BA7BF4BF0200B9946C3F16B
:1059800000094BF0280B01E04BF0010B039B13F8CF
:10599000016B0393002ECFD130E04BF0020B4BF0A4
:1059A000040BF3E74BF0080BF0E74BF0100BEDE7BF
:1059B000BBF17F0F19D8A6F13003092BD2D81BF009
:1059C000400F03D00A2101FB0737DFE70A2101FB63
:1059D00009394BF0200BD9E72E2E06D11BF0400FD2
:1059E00040F09E804BF0400BD0E76C2E31D02BD88E
:1059F000682E36D06A2E3CD04C2E3AD0002F46F07E
:105A00002003B8BF2BF04002A3F16501BCBF1FFA11
:105A100082FB0027022901D9612B2FD1073525F000
:105A20000705DFF8ACA2083507271BF0080F66D082
:105A30000AEB070B56465E4563D1A4EB0A0A06EB58
:105A40000A02A9EB07096FE1742E9FD07A2E9DD030
:105A5000D4E71BF0800F18BF4BF4007B4BF0800B9A
:105A600094E71BF4807F18BF4BF4007B4BF4807BE2
:105A70008CE74BF4207B89E71F4687E7A6F163019B
:105A8000122900F2F080DFE811F013004F00EE0061
:105A9000EE00EE00EE004F00EE00EE00EE00EE0035
:105AA000EE00FE00E900EE00EE001B00EE00AF008D
:105AB00055F8043B8DF8183001270DF1180AB4E7AA
:105AC00055F804AB834BBAF1000F08BF9A461BF0A0
:105AD000400F14BF39464FF0FF31504601F0F0FE41
